:100000000EC01DC09DC19FC01AC019C018C017C026
:10001000FAC115C023C113C079C111C010C0112489
:100020001FBECFE5D2E0DEBFCDBF20E0A0E6B0E04E
:1000300001C01D92AF36B207E1F757D0D0C3E0CF71
:1000400081E889BD81E488BD089580936000813096
:1000500039F018F0823039F00895BA98C2980895AE
:10006000BA9AC29A0895BA9AC29808958093600085
:10007000F8948130A1F018F0823031F134C01ABC0C
:1000800080B7806880BF80B7806180BF80B78C6098
:1000900080BF89B7806489BF8AE08DBD24C010BE4F
:1000A0008AB58ABD8AB580628ABD8AB581608ABDFB
:1000B00083B7886083BF83B7856083BF89B780615A
:1000C00089BF12BEBDDF0FC01ABC80B7806880BF79
:1000D00080B7806180BF80B7896080BF89B7806446
:1000E00089BF8AE08DBD7894089594E080E80FB6CA
:1000F000F89486BD96BD0FBEF894C19AB99AC3987C
:10010000BB98C498BC98B898C09A8BB780628BBFD4
:10011000A89A1092600080E098DF80E0A7DF87B1A6
:100120008F7387B93D9887B1836087B986B1886A34
:1001300086B986B1876086B913B8369A81B5886466
:1001400081BD7894FFCF1F920F920FB60F921124AA
:10015000CF92DF92EF92FF922F933F934F935F9353
:100160006F937F938F939F93AF93BF93EF93FF937F
:1001700080916000882319F08230B1F05AC08091DC
:10018000630090916400809718F482E08DBD51C0A7
:100190008091630090916400929582958F70892779
:1001A0009F7089278DBD45C0809163009091640048
:1001B0006091610070916200C0906B00D0906C0003
:1001C000E0906D00F0906E00729562956F706727F9
:1001D0007F706727F0D280E090E0F4D1A70196010C
:1001E0007FD2C4D16DBD60916B0070916C00809125
:1001F0006D0090916E0020E030E040E05FE352D16E
:1002000060936B0070936C0080936D0090936E0010
:100210008DB5209163003091640090E02817390774
:1002200040F410926B0010926C0010926D001092CE
:100230006E00FF91EF91BF91AF919F918F917F9150
:100240006F915F914F913F912F91FF90EF90DF90D1
:10025000CF900F900FBE0F901F9018951F920F9286
:100260000FB60F9211242F933F938F939F9320915A
:10027000630030916400809161009091620032953A
:1002800022952F7023273F702327929582958F7098
:1002900089279F7089278217930760F080916300F8
:1002A00090916400929582958F7089279F7089271D
:1002B0008F5F88BD20916100309162008091630062
:1002C00090916400329522952F7023273F70232749
:1002D000929582958F7089279F70892728173907F3
:1002E00060F08091610090916200929582958F708C
:1002F00089279F7089278F5F89BD9F918F913F913B
:100300002F910F900FBE0F901F9018951F920F9274
:100310000FB60F9211248F939F9380916900909153
:100320006A00019690936A008093690081B58064A9
:1003300081BD9F918F910F900FBE0F901F901895C8
:100340001F920F920FB60F921124CF92DF92EF926D
:10035000FF922F933F934F935F936F937F938F936E
:100360009F93AF93BF93EF93FF93C0906900D0909A
:100370006A00E12CF12C8091650090916600A091BB
:100380006700B0916800A7019601281B390B4A0B42
:100390005B0B2D3331054105510500F18091600063
:1003A000813049F018F0823061F010C081E05EDEEB
:1003B00081E04BDE0BC082E048DE82E057DE40DEAB
:1003C00005C080E042DE80E051DE3ADEC09265008A
:1003D000D0926600E0926700F0926800FF91EF9182
:1003E000BF91AF919F918F917F916F915F914F914D
:1003F0003F912F91FF90EF90DF90CF900F900FBE25
:100400000F901F9018951F920F920FB60F92112404
:100410002F933F938F939F9387B1823019F083304E
:10042000E9F035C084B190E090936400809363005C
:1004300095B12091630030916400892F90E0982F4E
:100440008827820F931F909364008093630087B185
:10045000807287B987B1836087B919C084B190E091
:10046000909362008093610095B12091610030917A
:100470006200892F90E0982F8827820F931F909316
:1004800062008093610087B1807287B9399A369A89
:100490009F918F913F912F910F900FBE0F901F90C2
:1004A00018955058BB27AA270ED0E0C0D1D030F005
:1004B000D6D020F031F49F3F11F41EF4C6C00EF4E4
:1004C000E095E7FBBCC0E92FE2D080F3BA176207E2
:1004D00073078407950718F071F49EF5FAC00EF4BF
:1004E000E0950B2EBA2FA02D0B01B90190010C0144
:1004F000CA01A0011124FF27591B99F0593F50F45C
:10050000503E68F11A16F040A22F232F342F4427B3
:10051000585FF3CF469537952795A795F0405395AB
:10052000C9F77EF41F16BA0B620B730B840BBAF07B
:100530009150A1F0FF0FBB1F661F771F881FC2F7E6
:100540000EC0BA0F621F731F841F48F487957795FA
:100550006795B795F7959E3F08F0B3CF9395880FB1
:1005600008F09927EE0F97958795089598D088F011
:100570009F5790F0B92F9927B751A0F0D1F0660F8F
:10058000771F881F991F1AF0BA95C9F712C0B130AA
:1005900081F09FD0B1E008959CC0672F782F882705
:1005A000B85F39F0B93FCCF3869577956795B395E9
:1005B000D9F73EF490958095709561957F4F8F4F58
:1005C0009F4F0895E89409C097FB3EF4909580955D
:1005D000709561957F4F8F4F9F4F9923A9F0F92F09
:1005E00096E9BB279395F695879577956795B79587
:1005F000F111F8CFFAF4BB0F11F460FF1BC06F5F6D
:100600007F4F8F4F9F4F16C0882311F096E911C07E
:10061000772321F09EE8872F762F05C0662371F09F
:1006200096E8862F70E060E02AF09A95660F771FB3
:10063000881FDAF7880F9695879597F9089597F9A7
:100640009F6780E870E060E008959FEF80EC089578
:1006500000240A94161617061806090608950024A1
:100660000A9412161306140605060895092E03941B
:10067000000C11F4882352F0BB0F40F4BF2B11F48F
:1006800060FF04C06F5F7F4F8F4F9F4F089557FDEE
:100690009058440F551F59F05F3F71F04795880FF0
:1006A00097FB991F61F09F3F79F087950895121687
:1006B00013061406551FF2CF4695F1DF08C0161633
:1006C00017061806991FF1CF8695710561050894E4
:1006D0000895E894BB2766277727CB0197F90895FB
:1006E0000AD0C4CFB5DF28F0BADF18F0952309F09F
:1006F000A6CFABCFEFCFCBDFA8F39923D9F3552308
:10070000C9F3950F50E0551FAA27EE27FF27BB27F7
:1007100000240894679520F4E20FF31FB41F0A1E0B
:10072000220F331F441FAA1F6695A9F7779530F44F
:10073000F30FB41F0A1E121E08F46395330F441FF3
:10074000AA1F221F769599F7879520F4B40F0A1EE9
:10075000121E631F440FAA1F221F331F8695A9F77D
:10076000862F712D602D11249F5750408AF0E1F0A3
:1007700088234AF0EE0FFF1FBB1F661F771F881FDD
:1007800091505040A9F79E3F510570F058CFA2CF2D
:100790005F3FECF3983EDCF3869577956795B795C8
:1007A000F795E7959F5FC1F7FE2B880F911D9695F2
:1007B000879597F90895AA1BBB1B51E107C0AA1F93
:1007C000BB1FA617B70710F0A61BB70B881F991FF2
:1007D0005A95A9F780959095BC01CD010895F8949C
:0207E000FFCF49
:00000001FF
