:100000000EC028C06DC1AAC025C024C023C022C014
:10001000CAC120C025C11EC049C11CC01BC01124BB
:100020001FBECFE5D2E0DEBFCDBF10E0A0E6B0E05E
:10003000E2E8F7E002C005900D92A236B107D9F7C9
:1000400020E0A2E6B0E001C01D92A037B207E1F7C0
:1000500057D095C3D5CF81E889BD81E488BD089587
:1000600080936000813039F018F0823039F00895C3
:10007000BA98C2980895BA9AC29A0895BA9AC2983C
:10008000089580936000F8948130A1F018F08230D8
:1000900031F134C01ABC80B7806880BF80B78061FE
:1000A00080BF80B78C6080BF89B7806489BF8AE0D9
:1000B0008DBD24C010BE8AB58ABD8AB580628ABD56
:1000C0008AB581608ABD83B7886083BF83B7856046
:1000D00083BF89B7806189BF12BEBDDF0FC01ABC64
:1000E00080B7806880BF80B7806180BF80B789603B
:1000F00080BF89B7806489BF8AE08DBD78940895F8
:1001000094E080E80FB6F89486BD96BD0FBEF894D3
:10011000C19AB99AC398BB98C498BC98B898C09A29
:100120008BB780628BBFA89A82E08093600098DFD3
:1001300082E0A7DF87B18F7387B93D9887B183606D
:1001400087B986B1886A86B986B1876086B913B8DF
:10015000369A81B5886481BD7894FFCF1F920F9243
:100160000FB60F921124CF92DF92EF92FF922F934E
:100170003F934F935F936F937F938F939F93AF932F
:10018000BF93EF93FF9380916000882319F0823032
:1001900069F051C0809164009091650092958295BC
:1001A0008F7089279F7089278DBD45C0809164001D
:1001B000909165006091620070916300C0906C0046
:1001C000D0906D00E0906E00F0906F007295629597
:1001D0006F7067277F706727BED280E090E0C2D142
:1001E000A70196014DD292D16DBD60916C007091C6
:1001F0006D0080916E0090916F0020E030E040E053
:100200005FE320D160936C0070936D0080936E006B
:1002100090936F008DB5209164003091650090E05F
:100220002817390740F410926C0010926D0010925C
:100230006E0010926F00FF91EF91BF91AF919F916F
:100240008F917F916F915F914F913F912F91FF908F
:10025000EF90DF90CF900F900FBE0F901F901895EA
:100260001F920F920FB60F9211248F939F9380913C
:10027000620090916300929582958F7089279F709C
:1002800089278F5F89BD8091640090916500929568
:1002900082958F7089279F7089278F5F88BD9F9176
:1002A0008F910F900FBE0F901F9018951F920F9275
:1002B0000FB60F9211248F939F9380916A009091B3
:1002C0006B00019690936B0080936A0081B5806407
:1002D00081BD9F918F910F900FBE0F901F90189529
:1002E0001F920F920FB60F921124CF92DF92EF92CE
:1002F000FF922F933F934F935F936F937F938F93CF
:100300009F93AF93BF93EF93FF93C0906A00D090F9
:100310006B00E12CF12C8091660090916700A09118
:100320006800B0916900A7019601281B390B4A0BA0
:100330005B0B2D3331054105510500F180916000C3
:10034000813049F018F0823061F010C081E099DE10
:1003500081E086DE0BC082E083DE82E092DE7BDE1F
:1003600005C080E07DDE80E08CDE75DEC092660038
:10037000D0926700E0926800F0926900FF91EF91DF
:10038000BF91AF919F918F917F916F915F914F91AD
:100390003F912F91FF90EF90DF90CF900F900FBE85
:1003A0000F901F9018951F920F920FB60F92112465
:1003B0002F933F938F939F9387B1823019F08330AF
:1003C000E9F035C084B190E09093650080936400BB
:1003D00095B12091640030916500892F90E0982FAD
:1003E0008827820F931F909365008093640087B1E4
:1003F000807287B987B1836087B919C084B190E0F2
:10040000909363008093620095B1209162003091D7
:100410006300892F90E0982F8827820F931F909375
:1004200063008093620087B1807287B9399A369AE7
:100430009F918F913F912F910F900FBE0F901F9022
:1004400018955058BB27AA270ED0E0C0D1D030F065
:10045000D6D020F031F49F3F11F41EF4C6C00EF444
:10046000E095E7FBBCC0E92FE2D080F3BA17620742
:1004700073078407950718F071F49EF5FAC00EF41F
:10048000E0950B2EBA2FA02D0B01B90190010C01A4
:10049000CA01A0011124FF27591B99F0593F50F4BC
:1004A000503E68F11A16F040A22F232F342F442714
:1004B000585FF3CF469537952795A795F04053950C
:1004C000C9F77EF41F16BA0B620B730B840BBAF0DC
:1004D0009150A1F0FF0FBB1F661F771F881FC2F747
:1004E0000EC0BA0F621F731F841F48F4879577955B
:1004F0006795B795F7959E3F08F0B3CF9395880F12
:1005000008F09927EE0F97958795089598D088F071
:100510009F5790F0B92F9927B751A0F0D1F0660FEF
:10052000771F881F991F1AF0BA95C9F712C0B1300A
:1005300081F09FD0B1E008959CC0672F782F882765
:10054000B85F39F0B93FCCF3869577956795B39549
:10055000D9F73EF490958095709561957F4F8F4FB8
:100560009F4F0895E89409C097FB3EF490958095BD
:10057000709561957F4F8F4F9F4F9923A9F0F92F69
:1005800096E9BB279395F695879577956795B795E7
:10059000F111F8CFFAF4BB0F11F460FF1BC06F5FCD
:1005A0007F4F8F4F9F4F16C0882311F096E911C0DF
:1005B000772321F09EE8872F762F05C0662371F000
:1005C00096E8862F70E060E02AF09A95660F771F14
:1005D000881FDAF7880F9695879597F9089597F908
:1005E0009F6780E870E060E008959FEF80EC0895D9
:1005F00000240A9416161706180609060895002402
:100600000A9412161306140605060895092E03947B
:10061000000C11F4882352F0BB0F40F4BF2B11F4EF
:1006200060FF04C06F5F7F4F8F4F9F4F089557FD4E
:100630009058440F551F59F05F3F71F04795880F50
:1006400097FB991F61F09F3F79F0879508951216E7
:1006500013061406551FF2CF4695F1DF08C0161693
:1006600017061806991FF1CF869571056105089444
:100670000895E894BB2766277727CB0197F908955B
:100680000AD0C4CFB5DF28F0BADF18F0952309F0FF
:10069000A6CFABCFEFCFCBDFA8F39923D9F3552368
:1006A000C9F3950F50E0551FAA27EE27FF27BB2758
:1006B00000240894679520F4E20FF31FB41F0A1E6C
:1006C000220F331F441FAA1F6695A9F7779530F4B0
:1006D000F30FB41F0A1E121E08F46395330F441F54
:1006E000AA1F221F769599F7879520F4B40F0A1E4A
:1006F000121E631F440FAA1F221F331F8695A9F7DE
:10070000862F712D602D11249F5750408AF0E1F003
:1007100088234AF0EE0FFF1FBB1F661F771F881F3D
:1007200091505040A9F79E3F510570F058CFA2CF8D
:100730005F3FECF3983EDCF3869577956795B79528
:10074000F795E7959F5FC1F7FE2B880F911D969552
:10075000879597F90895AA1BBB1B51E107C0AA1FF3
:10076000BB1FA617B70710F0A61BB70B881F991F52
:100770005A95A9F780959095BC01CD010895F894FC
:02078000FFCFA9
:02078200020073
:00000001FF
