:100000000EC01DC0EAC090C01AC019C018C017C0E9
:1000100044C115C0A2C013C0C6C011C010C0112475
:100020001FBECFE5D2E0DEBFCDBF20E0A0E6B0E04E
:1000300001C01D92AB36B207E1F746D07CC1E0CFDC
:1000400080936000813039F018F0823039F00895E3
:10005000BA98C2980895BA9AC29A0895BA9AC2985C
:10006000089581E889BD81E488BD0895809360008A
:10007000F894882319F0813089F024C01ABC80B725
:10008000806880BF80B7806180BF80B78C6080BF90
:1000900089B7806489BF8AE08DBD14C010BE8AB55F
:1000A0008ABD8AB580628ABD8AB581608ABD83B700
:1000B000886083BF83B7856083BF89B7806189BF4C
:1000C00012BECFDF7894089594E080E80FB6F894DC
:1000D00086BD96BD0FBEF8941092600080E0B0DF40
:1000E000C19AB99AC398BB98B898C09A8BB78062E6
:1000F0008BBFA89A80E0BADF87B18F7387B93D982C
:1001000087B1836087B986B1886A86B986B187600E
:1001100086B913B8369A81B5886481BD7894F8940D
:10012000809160007894FBCF1F920F920FB60F92D0
:1001300011248F939F938091630090916400929516
:1001400082958F7089279F7089278DBD9F918F9190
:100150000F900FBE0F901F9018951F920F920FB621
:100160000F9211248F939F93809161009091620070
:10017000929582958F7089279F7089278F5F89BD9F
:100180008091630090916400929582958F70892789
:100190009F7089278F5F88BD9F918F910F900FBEB1
:1001A0000F901F9018951F920F920FB60F92112467
:1001B0008F939F938091690090916A00019690932C
:1001C0006A008093690081B5806481BD9F918F91A1
:1001D0000F900FBE0F901F9018951F920F920FB6A1
:1001E0000F921124CF92DF92EF92FF922F933F93C1
:1001F0004F935F936F937F938F939F93AF93BF932F
:10020000EF93FF93C0906900D0906A00E12CF12C2D
:100210008091650090916600A0916700B0916800A0
:10022000A7019601281B390B4A0B5B0B2F313105B7
:1002300041055105E8F080916000813049F018F0E7
:10024000823049F00DC081E011DF81E0F9DE08C0A5
:1002500082E0F6DE05C080E0F3DE80E007DF01DF4C
:10026000C0926500D0926600E0926700F09268004C
:10027000FF91EF91BF91AF919F918F917F916F917E
:100280005F914F913F912F91FF90EF90DF90CF9032
:100290000F900FBE0F901F9018951F920F920FB6E0
:1002A0000F9211242F933F938F939F9387B18230A6
:1002B00019F08330E9F035C084B190E09093640088
:1002C0008093630095B12091630030916400892F81
:1002D00090E0982F8827820F931F9093640080935B
:1002E000630087B1807287B987B1836087B919C00D
:1002F00084B190E0909362008093610095B1209169
:10030000610030916200892F90E0982F8827820F3A
:10031000931F909362008093610087B1807287B9C8
:10032000399A369A9F918F913F912F910F900FBEDE
:0A0330000F901F901895F894FFCF6E
:00000001FF
